{
  "contractName": "Duration",
  "abi": [
    {
      "constant": true,
      "inputs": [
        {
          "name": "",
          "type": "uint256"
        }
      ],
      "name": "nodes",
      "outputs": [
        {
          "name": "owner",
          "type": "address"
        },
        {
          "name": "nodeID",
          "type": "uint256"
        },
        {
          "name": "numDemandHours",
          "type": "uint256"
        },
        {
          "name": "demandPrices",
          "type": "string"
        },
        {
          "name": "supplyHours",
          "type": "string"
        }
      ],
      "payable": false,
      "type": "function"
    },
    {
      "constant": true,
      "inputs": [
        {
          "name": "_nodeID",
          "type": "uint256"
        }
      ],
      "name": "getNode",
      "outputs": [
        {
          "name": "",
          "type": "address"
        },
        {
          "name": "",
          "type": "uint256"
        },
        {
          "name": "",
          "type": "string"
        },
        {
          "name": "",
          "type": "string"
        }
      ],
      "payable": false,
      "type": "function"
    },
    {
      "constant": true,
      "inputs": [],
      "name": "numNodes",
      "outputs": [
        {
          "name": "",
          "type": "uint256"
        }
      ],
      "payable": false,
      "type": "function"
    },
    {
      "constant": false,
      "inputs": [
        {
          "name": "sortedList",
          "type": "uint256[]"
        },
        {
          "name": "from",
          "type": "uint256[]"
        },
        {
          "name": "to",
          "type": "uint256[]"
        },
        {
          "name": "price",
          "type": "uint256[]"
        },
        {
          "name": "timeStep",
          "type": "uint256"
        },
        {
          "name": "contractAddress",
          "type": "address"
        }
      ],
      "name": "checkAndTransfer",
      "outputs": [
        {
          "name": "success",
          "type": "bool"
        }
      ],
      "payable": false,
      "type": "function"
    },
    {
      "constant": false,
      "inputs": [
        {
          "name": "_numDemandHours",
          "type": "uint256"
        },
        {
          "name": "_demandPrices",
          "type": "string"
        },
        {
          "name": "_supplyHours",
          "type": "string"
        }
      ],
      "name": "setNode",
      "outputs": [],
      "payable": false,
      "type": "function"
    }
  ],
  "bytecode": "0x6060604052341561000c57fe5b5b610cc78061001c6000396000f30060606040526000357c0100000000000000000000000000000000000000000000000000000000900463ffffffff1680631c53c280146100675780634f0f4aa9146101e757806394ca304b14610342578063bc5baf8314610368578063de734f19146104bf575bfe5b341561006f57fe5b6100856004808035906020019091905050610565565b604051808673ffffffffffffffffffffffffffffffffffffffff1673ffffffffffffffffffffffffffffffffffffffff16815260200185815260200184815260200180602001806020018381038352858181546001816001161561010002031660029004815260200191508054600181600116156101000203166002900480156101505780601f1061012557610100808354040283529160200191610150565b820191906000526020600020905b81548152906001019060200180831161013357829003601f168201915b50508381038252848181546001816001161561010002031660029004815260200191508054600181600116156101000203166002900480156101d35780601f106101a8576101008083540402835291602001916101d3565b820191906000526020600020905b8154815290600101906020018083116101b657829003601f168201915b505097505050505050505060405180910390f35b34156101ef57fe5b61020560048080359060200190919050506105b9565b604051808573ffffffffffffffffffffffffffffffffffffffff1673ffffffffffffffffffffffffffffffffffffffff1681526020018481526020018060200180602001838103835285818151815260200191508051906020019080838360008314610290575b8051825260208311156102905760208201915060208101905060208303925061026c565b505050905090810190601f1680156102bc5780820380516001836020036101000a031916815260200191505b50838103825284818151815260200191508051906020019080838360008314610304575b805182526020831115610304576020820191506020810190506020830392506102e0565b505050905090810190601f1680156103305780820380516001836020036101000a031916815260200191505b50965050505050505060405180910390f35b341561034a57fe5b61035261078f565b6040518082815260200191505060405180910390f35b341561037057fe5b6104a560048080359060200190820180359060200190808060200260200160405190810160405280939291908181526020018383602002808284378201915050505050509190803590602001908201803590602001908080602002602001604051908101604052809392919081815260200183836020028082843782019150505050505091908035906020019082018035906020019080806020026020016040519081016040528093929190818152602001838360200280828437820191505050505050919080359060200190820180359060200190808060200260200160405190810160405280939291908181526020018383602002808284378201915050505050509190803590602001909190803573ffffffffffffffffffffffffffffffffffffffff16906020019091905050610795565b604051808215151515815260200191505060405180910390f35b34156104c757fe5b610563600480803590602001909190803590602001908201803590602001908080601f0160208091040260200160405190810160405280939291908181526020018383808284378201915050505050509190803590602001908201803590602001908080601f01602080910402602001604051908101604052809392919081815260200183838082843782019150505050505091905050610b2d565b005b60016020528060005260406000206000915090508060000160009054906101000a900473ffffffffffffffffffffffffffffffffffffffff1690806001015490806002015490806003019080600401905085565b600060006105c5610be2565b6105cd610be2565b6001600086815260200190815260200160002060000160009054906101000a900473ffffffffffffffffffffffffffffffffffffffff1660016000878152602001908152602001600020600201546001600088815260200190815260200160002060030160016000898152602001908152602001600020600401818054600181600116156101000203166002900480601f0160208091040260200160405190810160405280929190818152602001828054600181600116156101000203166002900480156106dc5780601f106106b1576101008083540402835291602001916106dc565b820191906000526020600020905b8154815290600101906020018083116106bf57829003601f168201915b50505050509150808054600181600116156101000203166002900480601f0160208091040260200160405190810160405280929190818152602001828054600181600116156101000203166002900480156107785780601f1061074d57610100808354040283529160200191610778565b820191906000526020600020905b81548152906001019060200180831161075b57829003601f168201915b5050505050905093509350935093505b9193509193565b60005481565b60006000600083915060009050600189511115610974575b6001895103811015610973578173ffffffffffffffffffffffffffffffffffffffff1663052c36c0600160008b858151811015156107e757fe5b90602001906020020151815260200190815260200160002060000160009054906101000a900473ffffffffffffffffffffffffffffffffffffffff16600160008b8681518110151561083557fe5b90602001906020020151815260200190815260200160002060000160009054906101000a900473ffffffffffffffffffffffffffffffffffffffff16898c8681518110151561088057fe5b9060200190602002015181518110151561089657fe5b906020019060200201516040518463ffffffff167c0100000000000000000000000000000000000000000000000000000000028152600401808473ffffffffffffffffffffffffffffffffffffffff1673ffffffffffffffffffffffffffffffffffffffff1681526020018373ffffffffffffffffffffffffffffffffffffffff1673ffffffffffffffffffffffffffffffffffffffff1681526020018281526020019350505050600060405180830381600087803b151561095457fe5b6102c65a03f1151561096257fe5b5050505b80806001019150506107ad565b5b8173ffffffffffffffffffffffffffffffffffffffff1663052c36c0600160008b858151811015156109a257fe5b90602001906020020151815260200190815260200160002060000160009054906101000a900473ffffffffffffffffffffffffffffffffffffffff16600160008b868151811015156109f057fe5b90602001906020020151815260200190815260200160002060000160009054906101000a900473ffffffffffffffffffffffffffffffffffffffff16898c86815181101515610a3b57fe5b90602001906020020151815181101515610a5157fe5b906020019060200201516040518463ffffffff167c0100000000000000000000000000000000000000000000000000000000028152600401808473ffffffffffffffffffffffffffffffffffffffff1673ffffffffffffffffffffffffffffffffffffffff1681526020018373ffffffffffffffffffffffffffffffffffffffff1673ffffffffffffffffffffffffffffffffffffffff1681526020018281526020019350505050600060405180830381600087803b1515610b0f57fe5b6102c65a03f11515610b1d57fe5b5050505b50509695505050505050565b60006001600060005481526020019081526020016000209050338160000160006101000a81548173ffffffffffffffffffffffffffffffffffffffff021916908373ffffffffffffffffffffffffffffffffffffffff160217905550600054816001018190555083816002018190555082816003019080519060200190610bb5929190610bf6565b5081816004019080519060200190610bce929190610bf6565b506001600054016000819055505b50505050565b602060405190810160405280600081525090565b828054600181600116156101000203166002900490600052602060002090601f016020900481019282601f10610c3757805160ff1916838001178555610c65565b82800160010185558215610c65579182015b82811115610c64578251825591602001919060010190610c49565b5b509050610c729190610c76565b5090565b610c9891905b80821115610c94576000816000905550600101610c7c565b5090565b905600a165627a7a723058208642212b0223103ef697f2c1ffdf179bd8538a93d25b70b150ffacd87f24d0090029",
  "source": "import \"./FlexCoin.sol\";\n\npragma solidity ^0.4.11;\ncontract Duration {\n\n    struct Node {\n        address owner;\n        uint nodeID;\n        uint numDemandHours;\n        string demandPrices;\n        string supplyHours;\n    }\n\n    uint public numNodes;\n    mapping(uint => Node) public nodes;\n\n    function setNode(uint _numDemandHours, string _demandPrices, string _supplyHours) public {\n        Node n = nodes[numNodes];\n        n.owner = msg.sender;\n        n.nodeID = numNodes;\n        n.numDemandHours = _numDemandHours;\n        n.demandPrices = _demandPrices;\n        n.supplyHours = _supplyHours;\n        numNodes = numNodes + 1;\n    }\n\n\n    function getNode(uint _nodeID) constant public returns(address, uint, string, string){\n        return (nodes[_nodeID].owner, nodes[_nodeID].numDemandHours, nodes[_nodeID].demandPrices, nodes[_nodeID].supplyHours);\n    }\n\n    function checkAndTransfer(uint[] sortedList, uint[] from, uint[] to, uint[] price, uint timeStep, address contractAddress) public returns(bool success) {\n\n        FlexCoin f = FlexCoin(contractAddress);\n\n        uint i = 0;\n        if (sortedList.length > 1) {\n            for (i; i < (sortedList.length - 1); i++) {\n                f.transferHouse(nodes[from[i]].owner, nodes[to[i]].owner, price[from[i]]);\n            }\n        }\n        f.transferHouse(nodes[from[i]].owner, nodes[to[i]].owner, price[from[i]]);\n    }\n\n}\n",
  "sourcePath": "/home/lyzander/Documents/Proyek/sisdis-tk/contracts/Duration.sol",
  "compiler": {
    "name": "solc",
    "version": "0.4.11+commit.68ef5810.Emscripten.clang"
  },
  "schemaVersion": "3.4.16",
  "updatedAt": "2024-05-12T16:03:35.282Z",
  "networkType": "ethereum",
  "devdoc": {
    "methods": {}
  },
  "userdoc": {
    "methods": {}
  }
}