{
  "contractName": "DurationSecure",
  "abi": [
    {
      "constant": true,
      "inputs": [
        {
          "name": "",
          "type": "uint256"
        }
      ],
      "name": "nodes",
      "outputs": [
        {
          "name": "owner",
          "type": "address"
        },
        {
          "name": "nodeID",
          "type": "uint256"
        },
        {
          "name": "numDemandHours",
          "type": "uint256"
        }
      ],
      "payable": false,
      "type": "function"
    },
    {
      "constant": false,
      "inputs": [
        {
          "name": "sortedList",
          "type": "uint256[]"
        },
        {
          "name": "from",
          "type": "uint256[]"
        },
        {
          "name": "to",
          "type": "uint256[]"
        },
        {
          "name": "timeStep",
          "type": "uint256"
        },
        {
          "name": "contractAddress",
          "type": "address"
        }
      ],
      "name": "checkAndTransfer",
      "outputs": [
        {
          "name": "success",
          "type": "bool"
        }
      ],
      "payable": false,
      "type": "function"
    },
    {
      "constant": false,
      "inputs": [
        {
          "name": "_numDemandHours",
          "type": "uint256"
        },
        {
          "name": "_demandPrices",
          "type": "uint256[]"
        },
        {
          "name": "_supplyHours",
          "type": "uint256[]"
        }
      ],
      "name": "setNode",
      "outputs": [],
      "payable": false,
      "type": "function"
    },
    {
      "constant": true,
      "inputs": [],
      "name": "numNodes",
      "outputs": [
        {
          "name": "",
          "type": "uint256"
        }
      ],
      "payable": false,
      "type": "function"
    },
    {
      "constant": true,
      "inputs": [
        {
          "name": "_nodeID",
          "type": "uint256"
        },
        {
          "name": "timeStep",
          "type": "uint256"
        },
        {
          "name": "nodeFlag",
          "type": "uint256"
        }
      ],
      "name": "getNode",
      "outputs": [
        {
          "name": "",
          "type": "address"
        },
        {
          "name": "",
          "type": "uint256"
        },
        {
          "name": "",
          "type": "uint256"
        },
        {
          "name": "",
          "type": "uint256"
        }
      ],
      "payable": false,
      "type": "function"
    }
  ],
  "bytecode": "0x6060604052341561000c57fe5b5b610c468061001c6000396000f30060606040526000357c0100000000000000000000000000000000000000000000000000000000900463ffffffff1680631c53c280146100675780631d2cceb9146100d55780634fe79ad2146101ec57806394ca304b1461028c578063a7ecfd1e146102b2575bfe5b341561006f57fe5b6100856004808035906020019091905050610339565b604051808473ffffffffffffffffffffffffffffffffffffffff1673ffffffffffffffffffffffffffffffffffffffff168152602001838152602001828152602001935050505060405180910390f35b34156100dd57fe5b6101d2600480803590602001908201803590602001908080602002602001604051908101604052809392919081815260200183836020028082843782019150505050505091908035906020019082018035906020019080806020026020016040519081016040528093929190818152602001838360200280828437820191505050505050919080359060200190820180359060200190808060200260200160405190810160405280939291908181526020018383602002808284378201915050505050509190803590602001909190803573ffffffffffffffffffffffffffffffffffffffff16906020019091905050610383565b604051808215151515815260200191505060405180910390f35b34156101f457fe5b61028a6004808035906020019091908035906020019082018035906020019080806020026020016040519081016040528093929190818152602001838360200280828437820191505050505050919080359060200190820180359060200190808060200260200160405190810160405280939291908181526020018383602002808284378201915050505050509190505061094e565b005b341561029457fe5b61029c610a03565b6040518082815260200191505060405180910390f35b34156102ba57fe5b6102e26004808035906020019091908035906020019091908035906020019091905050610a09565b604051808573ffffffffffffffffffffffffffffffffffffffff1673ffffffffffffffffffffffffffffffffffffffff16815260200184815260200183815260200182815260200194505050505060405180910390f35b60016020528060005260406000206000915090508060000160009054906101000a900473ffffffffffffffffffffffffffffffffffffffff16908060010154908060020154905083565b600060006000839150600090506001885111156106d1575b60018851038110156106d0576001600089600184018151811015156103bc57fe5b906020019060200201518152602001908152602001600020600301858154811015156103e457fe5b906000526020600020900160005b5054600160008a8481518110151561040657fe5b9060200190602002015181526020019081526020016000206003018681548110151561042e57fe5b906000526020600020900160005b5054111561044d5760009250610943565b60016000898381518110151561045f57fe5b90602001906020020151815260200190815260200160002060010154878281518110151561048957fe5b906020019060200201511415806104e9575060006001600088848151811015156104af57fe5b906020019060200201518152602001908152602001600020600401868154811015156104d757fe5b906000526020600020900160005b5054145b156104f75760009250610943565b8173ffffffffffffffffffffffffffffffffffffffff1663052c36c0600160008a8581518110151561052557fe5b90602001906020020151815260200190815260200160002060000160009054906101000a900473ffffffffffffffffffffffffffffffffffffffff16600160008a8681518110151561057357fe5b90602001906020020151815260200190815260200160002060000160009054906101000a900473ffffffffffffffffffffffffffffffffffffffff16600160008d60018f51038151811015156105c557fe5b906020019060200201518152602001908152602001600020600301898154811015156105ed57fe5b906000526020600020900160005b50546040518463ffffffff167c0100000000000000000000000000000000000000000000000000000000028152600401808473ffffffffffffffffffffffffffffffffffffffff1673ffffffffffffffffffffffffffffffffffffffff1681526020018373ffffffffffffffffffffffffffffffffffffffff1673ffffffffffffffffffffffffffffffffffffffff1681526020018281526020019350505050600060405180830381600087803b15156106b157fe5b6102c65a03f115156106bf57fe5b5050505b808060010191505061039b565b5b6001600089838151811015156106e357fe5b90602001906020020151815260200190815260200160002060010154878281518110151561070d57fe5b9060200190602002015114158061076d5750600060016000888481518110151561073357fe5b9060200190602002015181526020019081526020016000206004018681548110151561075b57fe5b906000526020600020900160005b5054145b1561077b5760009250610943565b8173ffffffffffffffffffffffffffffffffffffffff1663052c36c0600160008a858151811015156107a957fe5b90602001906020020151815260200190815260200160002060000160009054906101000a900473ffffffffffffffffffffffffffffffffffffffff16600160008a868151811015156107f757fe5b90602001906020020151815260200190815260200160002060000160009054906101000a900473ffffffffffffffffffffffffffffffffffffffff16600160008c8781518110151561084557fe5b9060200190602002015181526020019081526020016000206003018981548110151561086d57fe5b906000526020600020900160005b50546040518463ffffffff167c0100000000000000000000000000000000000000000000000000000000028152600401808473ffffffffffffffffffffffffffffffffffffffff1673ffffffffffffffffffffffffffffffffffffffff1681526020018373ffffffffffffffffffffffffffffffffffffffff1673ffffffffffffffffffffffffffffffffffffffff1681526020018281526020019350505050600060405180830381600087803b151561093157fe5b6102c65a03f1151561093f57fe5b5050505b505095945050505050565b60006001600060005481526020019081526020016000209050338160000160006101000a81548173ffffffffffffffffffffffffffffffffffffffff021916908373ffffffffffffffffffffffffffffffffffffffff1602179055506000548160010181905550838160020181905550828160030190805190602001906109d6929190610ba8565b50818160040190805190602001906109ef929190610ba8565b506001600054016000819055505b50505050565b60005481565b60006000600060006000851415610adc576001600088815260200190815260200160002060000160009054906101000a900473ffffffffffffffffffffffffffffffffffffffff166001600089815260200190815260200160002060020154600160008a81526020019081526020016000206003016000815481101515610a8c57fe5b906000526020600020900160005b5054600160008b815260200190815260200160002060040189815481101515610abf57fe5b906000526020600020900160005b50549350935093509350610b9f565b6001600088815260200190815260200160002060000160009054906101000a900473ffffffffffffffffffffffffffffffffffffffff166001600089815260200190815260200160002060020154600160008a815260200190815260200160002060030188815481101515610b4d57fe5b906000526020600020900160005b5054600160008b81526020019081526020016000206004016000815481101515610b8157fe5b906000526020600020900160005b50549350935093509350610b9f565b5b93509350935093565b828054828255906000526020600020908101928215610be4579160200282015b82811115610be3578251825591602001919060010190610bc8565b5b509050610bf19190610bf5565b5090565b610c1791905b80821115610c13576000816000905550600101610bfb565b5090565b905600a165627a7a723058203205763f18e45c90a876f846c81f8d860b5a46797e2963a031c966732c731a5e0029",
  "source": "\nimport \"./FlexCoin.sol\";\n\npragma solidity ^0.4.11;\ncontract DurationSecure {\n\n    struct Node {\n        address owner;\n        uint nodeID;\n        uint numDemandHours;\n        uint[] demandPrices;\n        uint[] supplyHours;\n    }\n\n    uint public numNodes;\n    mapping(uint => Node) public nodes;\n\n    function setNode(uint _numDemandHours, uint[] _demandPrices, uint[] _supplyHours) public {\n        Node n = nodes[numNodes];\n        n.owner = msg.sender;\n        n.nodeID = numNodes;\n        n.numDemandHours = _numDemandHours;\n        n.demandPrices = _demandPrices;\n        n.supplyHours = _supplyHours;\n        numNodes = numNodes + 1;\n    }\n\n\n    function getNode(uint _nodeID, uint timeStep, uint nodeFlag) constant public returns(address, uint, uint, uint){\n        if (nodeFlag == 0){\n            return (nodes[_nodeID].owner, nodes[_nodeID].numDemandHours, nodes[_nodeID].demandPrices[0], nodes[_nodeID].supplyHours[timeStep]);\n        }\n        else {\n            return (nodes[_nodeID].owner, nodes[_nodeID].numDemandHours, nodes[_nodeID].demandPrices[timeStep], nodes[_nodeID].supplyHours[0]);\n        }\n    }\n\n    function checkAndTransfer(uint[] sortedList, uint[] from, uint[] to, uint timeStep, address contractAddress) public returns(bool success) {\n\n        FlexCoin f = FlexCoin(contractAddress);\n\n        uint i = 0;\n        if (sortedList.length > 1) {\n\n\n            for (i; i < (sortedList.length - 1); i++) {\n                if (nodes[sortedList[i]].demandPrices[timeStep] > nodes[sortedList[i + 1]].demandPrices[timeStep]) { return false; }\n                if (from[i] != nodes[sortedList[i]].nodeID || nodes[to[i]].supplyHours[timeStep] == 0) { return false; }\n                f.transferHouse(nodes[from[i]].owner, nodes[to[i]].owner, nodes[sortedList[sortedList.length - 1]].demandPrices[timeStep]);\n            }\n        }\n        if (from[i] != nodes[sortedList[i]].nodeID || nodes[to[i]].supplyHours[timeStep] == 0) { return false; }\n        f.transferHouse(nodes[from[i]].owner, nodes[to[i]].owner, nodes[from[i]].demandPrices[timeStep]);\n\n    }\n\n}\n",
  "sourcePath": "/home/lyzander/Documents/Proyek/sisdis-tk/contracts/DurationSecure.sol",
  "compiler": {
    "name": "solc",
    "version": "0.4.11+commit.68ef5810.Emscripten.clang"
  },
  "schemaVersion": "3.4.16",
  "updatedAt": "2024-05-22T02:07:02.037Z",
  "networkType": "ethereum",
  "devdoc": {
    "methods": {}
  },
  "userdoc": {
    "methods": {}
  }
}