{
  "contractName": "FlexCoin",
  "abi": [
    {
      "constant": false,
      "inputs": [
        {
          "name": "_from",
          "type": "address"
        },
        {
          "name": "_to",
          "type": "address"
        },
        {
          "name": "_amount",
          "type": "uint256"
        }
      ],
      "name": "transferHouse",
      "outputs": [],
      "payable": false,
      "type": "function"
    },
    {
      "constant": true,
      "inputs": [
        {
          "name": "_address",
          "type": "address"
        }
      ],
      "name": "getHouse",
      "outputs": [
        {
          "name": "",
          "type": "address"
        },
        {
          "name": "",
          "type": "uint256"
        }
      ],
      "payable": false,
      "type": "function"
    },
    {
      "constant": true,
      "inputs": [],
      "name": "numHouses",
      "outputs": [
        {
          "name": "",
          "type": "uint256"
        }
      ],
      "payable": false,
      "type": "function"
    },
    {
      "constant": false,
      "inputs": [],
      "name": "newHouse",
      "outputs": [],
      "payable": true,
      "type": "function"
    },
    {
      "anonymous": false,
      "inputs": [
        {
          "indexed": false,
          "name": "from",
          "type": "address"
        },
        {
          "indexed": false,
          "name": "to",
          "type": "address"
        },
        {
          "indexed": false,
          "name": "flexCoinAmount",
          "type": "uint256"
        }
      ],
      "name": "Transfer",
      "type": "event"
    },
    {
      "anonymous": false,
      "inputs": [
        {
          "indexed": false,
          "name": "buyerFlex",
          "type": "address"
        },
        {
          "indexed": false,
          "name": "smartMeter",
          "type": "address"
        },
        {
          "indexed": false,
          "name": "flexAmount",
          "type": "int256"
        },
        {
          "indexed": false,
          "name": "interval",
          "type": "uint256[]"
        }
      ],
      "name": "smartMeterPlan",
      "type": "event"
    }
  ],
  "bytecode": "0x6060604052341561000c57fe5b5b61051e8061001c6000396000f30060606040526000357c0100000000000000000000000000000000000000000000000000000000900463ffffffff168063052c36c01461005c5780633991737a146100ba5780638d8447f614610137578063fa481f861461015d575bfe5b341561006457fe5b6100b8600480803573ffffffffffffffffffffffffffffffffffffffff1690602001909190803573ffffffffffffffffffffffffffffffffffffffff16906020019091908035906020019091905050610167565b005b34156100c257fe5b6100ee600480803573ffffffffffffffffffffffffffffffffffffffff16906020019091905050610394565b604051808373ffffffffffffffffffffffffffffffffffffffff1673ffffffffffffffffffffffffffffffffffffffff1681526020018281526020019250505060405180910390f35b341561013f57fe5b610147610448565b6040518082815260200191505060405180910390f35b61016561044e565b005b80600060008573ffffffffffffffffffffffffffffffffffffffff1673ffffffffffffffffffffffffffffffffffffffff16815260200190815260200160002060020154101515156101b95760006000fd5b600060008373ffffffffffffffffffffffffffffffffffffffff1673ffffffffffffffffffffffffffffffffffffffff1681526020019081526020016000206002015481600060008573ffffffffffffffffffffffffffffffffffffffff1673ffffffffffffffffffffffffffffffffffffffff16815260200190815260200160002060020154011015151561024f5760006000fd5b80600060008573ffffffffffffffffffffffffffffffffffffffff1673ffffffffffffffffffffffffffffffffffffffff1681526020019081526020016000206002016000828254039250508190555080600060008473ffffffffffffffffffffffffffffffffffffffff1673ffffffffffffffffffffffffffffffffffffffff168152602001908152602001600020600201600082825401925050819055507fddf252ad1be2c89b69c2b068fc378daa952ba7f163c4a11628f55a4df523b3ef838383604051808473ffffffffffffffffffffffffffffffffffffffff1673ffffffffffffffffffffffffffffffffffffffff1681526020018373ffffffffffffffffffffffffffffffffffffffff1673ffffffffffffffffffffffffffffffffffffffff168152602001828152602001935050505060405180910390a15b505050565b60006000600060008473ffffffffffffffffffffffffffffffffffffffff1673ffffffffffffffffffffffffffffffffffffffff16815260200190815260200160002060010160009054906101000a900473ffffffffffffffffffffffffffffffffffffffff16600060008573ffffffffffffffffffffffffffffffffffffffff1673ffffffffffffffffffffffffffffffffffffffff16815260200190815260200160002060020154915091505b915091565b60015481565b6000600160015401600181905550600060003373ffffffffffffffffffffffffffffffffffffffff1673ffffffffffffffffffffffffffffffffffffffff1681526020019081526020016000209050338160010160006101000a81548173ffffffffffffffffffffffffffffffffffffffff021916908373ffffffffffffffffffffffffffffffffffffffff160217905550642e90edd00081600201819055505b505600a165627a7a723058200fd87e15ceffaf98ecefac969b9a0f0bb71f6e1019b24a183951e703f29cd83b0029",
  "source": "\npragma solidity ^0.4.11;\n\n\n\n\ncontract FlexCoin {\n\n    struct House {\n        address owner;\n        address smartMeter;\n        uint flexCoinBalance;\n    }\n\n    mapping(address => House) houses;\n    uint public numHouses;\n\n    event Transfer(address from, address to, uint flexCoinAmount);\n    event smartMeterPlan(address buyerFlex, address smartMeter, int flexAmount, uint[] interval);\n\n\n    function newHouse() payable public {\n        numHouses = numHouses + 1;\n        House h = houses[msg.sender];\n        h.smartMeter = msg.sender;\n        h.flexCoinBalance = 200000000000;\n    }\n\n\n    function getHouse(address _address) public constant returns (address, uint) {\n        return (houses[_address].smartMeter, houses[_address].flexCoinBalance);\n    }\n\n    function transferHouse(address _from, address _to, uint _amount){\n        require(houses[_from].flexCoinBalance >= _amount);\n        require(houses[_to].flexCoinBalance + _amount >= houses[_to].flexCoinBalance);\n        houses[_from].flexCoinBalance -= _amount;\n        houses[_to].flexCoinBalance += _amount;\n        Transfer(_from, _to, _amount);\n    }\n\n\n}\n",
  "sourcePath": "/home/lyzander/Documents/Proyek/sisdis-tk/contracts/FlexCoin.sol",
  "compiler": {
    "name": "solc",
    "version": "0.4.11+commit.68ef5810.Emscripten.clang"
  },
  "schemaVersion": "3.4.16",
  "updatedAt": "2024-05-23T06:54:36.790Z",
  "networkType": "ethereum",
  "devdoc": {
    "methods": {}
  },
  "userdoc": {
    "methods": {}
  }
}